{
  "_format": "hh-sol-artifact-1",
  "contractName": "gasChallenge",
  "sourceName": "contracts/gasChallenge.sol",
  "abi": [
    {
      "inputs": [],
      "name": "getSumOfArray",
      "outputs": [
        {
          "internalType": "uint256",
          "name": "",
          "type": "uint256"
        }
      ],
      "stateMutability": "view",
      "type": "function"
    },
    {
      "inputs": [],
      "name": "notOptimizedFunction",
      "outputs": [],
      "stateMutability": "nonpayable",
      "type": "function"
    },
    {
      "inputs": [],
      "name": "optimizedFunction",
      "outputs": [],
      "stateMutability": "nonpayable",
      "type": "function"
    }
  ],
  "bytecode": "0x6080604052604051806101400160405280600160ff168152602001600260ff168152602001600360ff168152602001600460ff168152602001600560ff168152602001600660ff168152602001600760ff168152602001600860ff168152602001600960ff168152602001600a60ff16815250600090600a610082929190610095565b5034801561008f57600080fd5b506100f7565b82600a81019282156100c9579160200282015b828111156100c8578251829060ff169055916020019190600101906100a8565b5b5090506100d691906100da565b5090565b5b808211156100f35760008160009055506001016100db565b5090565b6102bb806101066000396000f3fe608060405234801561001057600080fd5b50600436106100415760003560e01c806368b5f223146100465780637ce418941461005057806380d2c8031461005a575b600080fd5b61004e610078565b005b6100586100b4565b005b6100626100fd565b60405161006f9190610167565b60405180910390f35b60005b600a8110156100b15760008082600a811061009957610098610182565b5b018190555080806100a9906101e0565b91505061007b565b50565b6000600a905060008190505b60008111156100f95760008060018303600a81106100e1576100e0610182565b5b018190555080806100f190610228565b9150506100c0565b5050565b6000806000905060005b600a81101561014657600081600a811061012457610123610182565b5b0154826101319190610251565b9150808061013e906101e0565b915050610107565b508091505090565b6000819050919050565b6101618161014e565b82525050565b600060208201905061017c6000830184610158565b92915050565b7f4e487b7100000000000000000000000000000000000000000000000000000000600052603260045260246000fd5b7f4e487b7100000000000000000000000000000000000000000000000000000000600052601160045260246000fd5b60006101eb8261014e565b91507fffffffffffffffffffffffffffffffffffffffffffffffffffffffffffffffff820361021d5761021c6101b1565b5b600182019050919050565b60006102338261014e565b915060008203610246576102456101b1565b5b600182039050919050565b600061025c8261014e565b91506102678361014e565b925082820190508082111561027f5761027e6101b1565b5b9291505056fea2646970667358221220f01a38783db5b88402bc50c10ec93930426c2b1c32d274350242ae5ff494fcca64736f6c63430008120033",
  "linkReferences": {},
  "deployedLinkReferences": {}
}